{
  "address": "0xe7f1725E7734CE288F8367e1Bb143E90bb3F0512",
  "abi": [
    {
      "inputs": [],
      "stateMutability": "nonpayable",
      "type": "constructor"
    },
    {
      "anonymous": false,
      "inputs": [
        {
          "indexed": true,
          "internalType": "address",
          "name": "owner",
          "type": "address"
        },
        {
          "indexed": true,
          "internalType": "address",
          "name": "approved",
          "type": "address"
        },
        {
          "indexed": true,
          "internalType": "uint256",
          "name": "tokenId",
          "type": "uint256"
        }
      ],
      "name": "Approval",
      "type": "event"
    },
    {
      "anonymous": false,
      "inputs": [
        {
          "indexed": true,
          "internalType": "address",
          "name": "owner",
          "type": "address"
        },
        {
          "indexed": true,
          "internalType": "address",
          "name": "operator",
          "type": "address"
        },
        {
          "indexed": false,
          "internalType": "bool",
          "name": "approved",
          "type": "bool"
        }
      ],
      "name": "ApprovalForAll",
      "type": "event"
    },
    {
      "anonymous": false,
      "inputs": [
        {
          "indexed": false,
          "internalType": "uint256",
          "name": "_fromTokenId",
          "type": "uint256"
        },
        {
          "indexed": false,
          "internalType": "uint256",
          "name": "_toTokenId",
          "type": "uint256"
        }
      ],
      "name": "BatchMetadataUpdate",
      "type": "event"
    },
    {
      "anonymous": false,
      "inputs": [
        {
          "indexed": true,
          "internalType": "uint256",
          "name": "tokenId",
          "type": "uint256"
        },
        {
          "indexed": false,
          "internalType": "uint256",
          "name": "vulnerabilityId",
          "type": "uint256"
        }
      ],
      "name": "CriticalFindRecorded",
      "type": "event"
    },
    {
      "anonymous": false,
      "inputs": [
        {
          "indexed": false,
          "internalType": "uint256",
          "name": "_tokenId",
          "type": "uint256"
        }
      ],
      "name": "MetadataUpdate",
      "type": "event"
    },
    {
      "anonymous": false,
      "inputs": [
        {
          "indexed": true,
          "internalType": "address",
          "name": "previousOwner",
          "type": "address"
        },
        {
          "indexed": true,
          "internalType": "address",
          "name": "newOwner",
          "type": "address"
        }
      ],
      "name": "OwnershipTransferred",
      "type": "event"
    },
    {
      "anonymous": false,
      "inputs": [
        {
          "indexed": true,
          "internalType": "uint256",
          "name": "tokenId",
          "type": "uint256"
        },
        {
          "indexed": true,
          "internalType": "address",
          "name": "researcher",
          "type": "address"
        },
        {
          "indexed": false,
          "internalType": "uint256",
          "name": "newScore",
          "type": "uint256"
        },
        {
          "indexed": false,
          "internalType": "enum ReputationNFT.ReputationLevel",
          "name": "newLevel",
          "type": "uint8"
        }
      ],
      "name": "ReputationUpdated",
      "type": "event"
    },
    {
      "anonymous": false,
      "inputs": [
        {
          "indexed": true,
          "internalType": "uint256",
          "name": "tokenId",
          "type": "uint256"
        },
        {
          "indexed": false,
          "internalType": "string",
          "name": "specialization",
          "type": "string"
        }
      ],
      "name": "SpecializationAdded",
      "type": "event"
    },
    {
      "anonymous": false,
      "inputs": [
        {
          "indexed": true,
          "internalType": "address",
          "name": "from",
          "type": "address"
        },
        {
          "indexed": true,
          "internalType": "address",
          "name": "to",
          "type": "address"
        },
        {
          "indexed": true,
          "internalType": "uint256",
          "name": "tokenId",
          "type": "uint256"
        }
      ],
      "name": "Transfer",
      "type": "event"
    },
    {
      "inputs": [
        {
          "internalType": "address",
          "name": "_researcher",
          "type": "address"
        },
        {
          "internalType": "string",
          "name": "_specialization",
          "type": "string"
        }
      ],
      "name": "addSpecialization",
      "outputs": [],
      "stateMutability": "nonpayable",
      "type": "function"
    },
    {
      "inputs": [
        {
          "internalType": "address",
          "name": "to",
          "type": "address"
        },
        {
          "internalType": "uint256",
          "name": "tokenId",
          "type": "uint256"
        }
      ],
      "name": "approve",
      "outputs": [],
      "stateMutability": "nonpayable",
      "type": "function"
    },
    {
      "inputs": [
        {
          "internalType": "address",
          "name": "owner",
          "type": "address"
        }
      ],
      "name": "balanceOf",
      "outputs": [
        {
          "internalType": "uint256",
          "name": "",
          "type": "uint256"
        }
      ],
      "stateMutability": "view",
      "type": "function"
    },
    {
      "inputs": [
        {
          "internalType": "uint256",
          "name": "tokenId",
          "type": "uint256"
        }
      ],
      "name": "getApproved",
      "outputs": [
        {
          "internalType": "address",
          "name": "",
          "type": "address"
        }
      ],
      "stateMutability": "view",
      "type": "function"
    },
    {
      "inputs": [
        {
          "internalType": "uint256",
          "name": "_tokenId",
          "type": "uint256"
        }
      ],
      "name": "getResearcherData",
      "outputs": [
        {
          "components": [
            {
              "internalType": "uint256",
              "name": "reputationScore",
              "type": "uint256"
            },
            {
              "internalType": "uint256",
              "name": "vulnerabilitiesFound",
              "type": "uint256"
            },
            {
              "internalType": "uint256",
              "name": "totalEarnings",
              "type": "uint256"
            },
            {
              "internalType": "uint256",
              "name": "lastUpdate",
              "type": "uint256"
            },
            {
              "internalType": "enum ReputationNFT.ReputationLevel",
              "name": "level",
              "type": "uint8"
            },
            {
              "internalType": "string[]",
              "name": "specializations",
              "type": "string[]"
            },
            {
              "internalType": "uint256[]",
              "name": "criticalFinds",
              "type": "uint256[]"
            }
          ],
          "internalType": "struct ReputationNFT.ResearcherNFT",
          "name": "",
          "type": "tuple"
        }
      ],
      "stateMutability": "view",
      "type": "function"
    },
    {
      "inputs": [
        {
          "internalType": "address",
          "name": "_researcher",
          "type": "address"
        }
      ],
      "name": "getTokenIdByAddress",
      "outputs": [
        {
          "internalType": "uint256",
          "name": "",
          "type": "uint256"
        }
      ],
      "stateMutability": "view",
      "type": "function"
    },
    {
      "inputs": [
        {
          "internalType": "address",
          "name": "owner",
          "type": "address"
        },
        {
          "internalType": "address",
          "name": "operator",
          "type": "address"
        }
      ],
      "name": "isApprovedForAll",
      "outputs": [
        {
          "internalType": "bool",
          "name": "",
          "type": "bool"
        }
      ],
      "stateMutability": "view",
      "type": "function"
    },
    {
      "inputs": [
        {
          "internalType": "enum ReputationNFT.ReputationLevel",
          "name": "",
          "type": "uint8"
        }
      ],
      "name": "levelColors",
      "outputs": [
        {
          "internalType": "string",
          "name": "",
          "type": "string"
        }
      ],
      "stateMutability": "view",
      "type": "function"
    },
    {
      "inputs": [
        {
          "internalType": "enum ReputationNFT.ReputationLevel",
          "name": "",
          "type": "uint8"
        }
      ],
      "name": "levelNames",
      "outputs": [
        {
          "internalType": "string",
          "name": "",
          "type": "string"
        }
      ],
      "stateMutability": "view",
      "type": "function"
    },
    {
      "inputs": [
        {
          "internalType": "address",
          "name": "_researcher",
          "type": "address"
        }
      ],
      "name": "mintReputationNFT",
      "outputs": [
        {
          "internalType": "uint256",
          "name": "",
          "type": "uint256"
        }
      ],
      "stateMutability": "nonpayable",
      "type": "function"
    },
    {
      "inputs": [],
      "name": "name",
      "outputs": [
        {
          "internalType": "string",
          "name": "",
          "type": "string"
        }
      ],
      "stateMutability": "view",
      "type": "function"
    },
    {
      "inputs": [],
      "name": "owner",
      "outputs": [
        {
          "internalType": "address",
          "name": "",
          "type": "address"
        }
      ],
      "stateMutability": "view",
      "type": "function"
    },
    {
      "inputs": [
        {
          "internalType": "uint256",
          "name": "tokenId",
          "type": "uint256"
        }
      ],
      "name": "ownerOf",
      "outputs": [
        {
          "internalType": "address",
          "name": "",
          "type": "address"
        }
      ],
      "stateMutability": "view",
      "type": "function"
    },
    {
      "inputs": [],
      "name": "renounceOwnership",
      "outputs": [],
      "stateMutability": "nonpayable",
      "type": "function"
    },
    {
      "inputs": [
        {
          "internalType": "uint256",
          "name": "",
          "type": "uint256"
        }
      ],
      "name": "researcherData",
      "outputs": [
        {
          "internalType": "uint256",
          "name": "reputationScore",
          "type": "uint256"
        },
        {
          "internalType": "uint256",
          "name": "vulnerabilitiesFound",
          "type": "uint256"
        },
        {
          "internalType": "uint256",
          "name": "totalEarnings",
          "type": "uint256"
        },
        {
          "internalType": "uint256",
          "name": "lastUpdate",
          "type": "uint256"
        },
        {
          "internalType": "enum ReputationNFT.ReputationLevel",
          "name": "level",
          "type": "uint8"
        }
      ],
      "stateMutability": "view",
      "type": "function"
    },
    {
      "inputs": [
        {
          "internalType": "address",
          "name": "",
          "type": "address"
        }
      ],
      "name": "researcherToTokenId",
      "outputs": [
        {
          "internalType": "uint256",
          "name": "",
          "type": "uint256"
        }
      ],
      "stateMutability": "view",
      "type": "function"
    },
    {
      "inputs": [
        {
          "internalType": "address",
          "name": "from",
          "type": "address"
        },
        {
          "internalType": "address",
          "name": "to",
          "type": "address"
        },
        {
          "internalType": "uint256",
          "name": "tokenId",
          "type": "uint256"
        }
      ],
      "name": "safeTransferFrom",
      "outputs": [],
      "stateMutability": "nonpayable",
      "type": "function"
    },
    {
      "inputs": [
        {
          "internalType": "address",
          "name": "from",
          "type": "address"
        },
        {
          "internalType": "address",
          "name": "to",
          "type": "address"
        },
        {
          "internalType": "uint256",
          "name": "tokenId",
          "type": "uint256"
        },
        {
          "internalType": "bytes",
          "name": "data",
          "type": "bytes"
        }
      ],
      "name": "safeTransferFrom",
      "outputs": [],
      "stateMutability": "nonpayable",
      "type": "function"
    },
    {
      "inputs": [
        {
          "internalType": "address",
          "name": "operator",
          "type": "address"
        },
        {
          "internalType": "bool",
          "name": "approved",
          "type": "bool"
        }
      ],
      "name": "setApprovalForAll",
      "outputs": [],
      "stateMutability": "nonpayable",
      "type": "function"
    },
    {
      "inputs": [
        {
          "internalType": "address",
          "name": "_registry",
          "type": "address"
        }
      ],
      "name": "setVulnerabilityRegistry",
      "outputs": [],
      "stateMutability": "nonpayable",
      "type": "function"
    },
    {
      "inputs": [
        {
          "internalType": "bytes4",
          "name": "interfaceId",
          "type": "bytes4"
        }
      ],
      "name": "supportsInterface",
      "outputs": [
        {
          "internalType": "bool",
          "name": "",
          "type": "bool"
        }
      ],
      "stateMutability": "view",
      "type": "function"
    },
    {
      "inputs": [],
      "name": "symbol",
      "outputs": [
        {
          "internalType": "string",
          "name": "",
          "type": "string"
        }
      ],
      "stateMutability": "view",
      "type": "function"
    },
    {
      "inputs": [
        {
          "internalType": "uint256",
          "name": "tokenId",
          "type": "uint256"
        }
      ],
      "name": "tokenURI",
      "outputs": [
        {
          "internalType": "string",
          "name": "",
          "type": "string"
        }
      ],
      "stateMutability": "view",
      "type": "function"
    },
    {
      "inputs": [
        {
          "internalType": "address",
          "name": "from",
          "type": "address"
        },
        {
          "internalType": "address",
          "name": "to",
          "type": "address"
        },
        {
          "internalType": "uint256",
          "name": "tokenId",
          "type": "uint256"
        }
      ],
      "name": "transferFrom",
      "outputs": [],
      "stateMutability": "nonpayable",
      "type": "function"
    },
    {
      "inputs": [
        {
          "internalType": "address",
          "name": "newOwner",
          "type": "address"
        }
      ],
      "name": "transferOwnership",
      "outputs": [],
      "stateMutability": "nonpayable",
      "type": "function"
    },
    {
      "inputs": [
        {
          "internalType": "address",
          "name": "_researcher",
          "type": "address"
        },
        {
          "internalType": "uint256",
          "name": "_scoreIncrease",
          "type": "uint256"
        },
        {
          "internalType": "uint256",
          "name": "_earnings",
          "type": "uint256"
        },
        {
          "internalType": "bool",
          "name": "_isCritical",
          "type": "bool"
        },
        {
          "internalType": "uint256",
          "name": "_vulnerabilityId",
          "type": "uint256"
        }
      ],
      "name": "updateReputation",
      "outputs": [],
      "stateMutability": "nonpayable",
      "type": "function"
    },
    {
      "inputs": [],
      "name": "vulnerabilityRegistry",
      "outputs": [
        {
          "internalType": "address",
          "name": "",
          "type": "address"
        }
      ],
      "stateMutability": "view",
      "type": "function"
    }
  ],
  "transactionHash": "0x018fc04c044b40409d8d03e7c1be84add51679645d988f9ce1e906e835706686",
  "args": [],
  "numDeployments": 1,
  "solcInputHash": "88e3a7e8f78979db18895d1e89c40235",
  "bytecode": "0x608060405234801561001057600080fd5b506040518060400160405280601281526020017f53656375726974795265736561726368657200000000000000000000000000008152506040518060400160405280600481526020017f5345435200000000000000000000000000000000000000000000000000000000815250816000908161008c91906108c7565b50806001908161009c91906108c7565b5050506100bb6100b06100dd60201b60201c565b6100e560201b60201c565b6100ca336100e560201b60201c565b6100d86101ab60201b60201c565b6109c8565b600033905090565b6000600760009054906101000a900473ffffffffffffffffffffffffffffffffffffffff16905081600760006101000a81548173ffffffffffffffffffffffffffffffffffffffff021916908373ffffffffffffffffffffffffffffffffffffffff1602179055508173ffffffffffffffffffffffffffffffffffffffff168173ffffffffffffffffffffffffffffffffffffffff167f8be0079c531659141344cd1fd0a4f28419497f9722a3daafe3b4186f6b6457e060405160405180910390a35050565b6040518060400160405280600681526020017f4e6f766963650000000000000000000000000000000000000000000000000000815250600c60008060048111156101f8576101f7610999565b5b600481111561020a57610209610999565b5b8152602001908152602001600020908161022491906108c7565b506040518060400160405280600a81526020017f5265736561726368657200000000000000000000000000000000000000000000815250600c60006001600481111561027357610272610999565b5b600481111561028557610284610999565b5b8152602001908152602001600020908161029f91906108c7565b506040518060400160405280600681526020017f4578706572740000000000000000000000000000000000000000000000000000815250600c6000600260048111156102ee576102ed610999565b5b6004811115610300576102ff610999565b5b8152602001908152602001600020908161031a91906108c7565b506040518060400160405280600581526020017f456c697465000000000000000000000000000000000000000000000000000000815250600c60006003600481111561036957610368610999565b5b600481111561037b5761037a610999565b5b8152602001908152602001600020908161039591906108c7565b506040518060400160405280600981526020017f4c6567656e646172790000000000000000000000000000000000000000000000815250600c60006004808111156103e3576103e2610999565b5b60048111156103f5576103f4610999565b5b8152602001908152602001600020908161040f91906108c7565b506040518060400160405280600781526020017f2338423944433300000000000000000000000000000000000000000000000000815250600d600080600481111561045d5761045c610999565b5b600481111561046f5761046e610999565b5b8152602001908152602001600020908161048991906108c7565b506040518060400160405280600781526020017f2331364130383500000000000000000000000000000000000000000000000000815250600d6000600160048111156104d8576104d7610999565b5b60048111156104ea576104e9610999565b5b8152602001908152602001600020908161050491906108c7565b506040518060400160405280600781526020017f2346333943313200000000000000000000000000000000000000000000000000815250600d60006002600481111561055357610552610999565b5b600481111561056557610564610999565b5b8152602001908152602001600020908161057f91906108c7565b506040518060400160405280600781526020017f2338453434414400000000000000000000000000000000000000000000000000815250600d6000600360048111156105ce576105cd610999565b5b60048111156105e0576105df610999565b5b815260200190815260200160002090816105fa91906108c7565b506040518060400160405280600781526020017f2345373443334300000000000000000000000000000000000000000000000000815250600d600060048081111561064857610647610999565b5b600481111561065a57610659610999565b5b8152602001908152602001600020908161067491906108c7565b50565b600081519050919050565b7f4e487b7100000000000000000000000000000000000000000000000000000000600052604160045260246000fd5b7f4e487b7100000000000000000000000000000000000000000000000000000000600052602260045260246000fd5b600060028204905060018216806106f857607f821691505b60208210810361070b5761070a6106b1565b5b50919050565b60008190508160005260206000209050919050565b60006020601f8301049050919050565b600082821b905092915050565b6000600883026107737fffffffffffffffffffffffffffffffffffffffffffffffffffffffffffffffff82610736565b61077d8683610736565b95508019841693508086168417925050509392505050565b6000819050919050565b6000819050919050565b60006107c46107bf6107ba84610795565b61079f565b610795565b9050919050565b6000819050919050565b6107de836107a9565b6107f26107ea826107cb565b848454610743565b825550505050565b600090565b6108076107fa565b6108128184846107d5565b505050565b5b818110156108365761082b6000826107ff565b600181019050610818565b5050565b601f82111561087b5761084c81610711565b61085584610726565b81016020851015610864578190505b61087861087085610726565b830182610817565b50505b505050565b600082821c905092915050565b600061089e60001984600802610880565b1980831691505092915050565b60006108b7838361088d565b9150826002028217905092915050565b6108d082610677565b67ffffffffffffffff8111156108e9576108e8610682565b5b6108f382546106e0565b6108fe82828561083a565b600060209050601f831160018114610931576000841561091f578287015190505b61092985826108ab565b865550610991565b601f19841661093f86610711565b60005b8281101561096757848901518255600182019150602085019450602081019050610942565b868310156109845784890151610980601f89168261088d565b8355505b6001600288020188555050505b505050505050565b7f4e487b7100000000000000000000000000000000000000000000000000000000600052602160045260246000fd5b615c8e806109d76000396000f3fe608060405234801561001057600080fd5b50600436106101a95760003560e01c80638cbab7e4116100f9578063c15f33ae11610097578063c87b56dd11610071578063c87b56dd146104f4578063e985e9c514610524578063ea62781d14610554578063f2fde38b14610584576101a9565b8063c15f33ae14610460578063c2ae022a14610490578063c7c7b749146104c0576101a9565b806395d89b41116100d357806395d89b41146103ee57806397829e241461040c578063a22cb46514610428578063b88d4fde14610444576101a9565b80638cbab7e4146103705780638da5cb5b146103a0578063953ef923146103be576101a9565b80633f494b02116101665780636352211e116101405780636352211e146102d657806370a0823114610306578063715018a61461033657806386e3886814610340576101a9565b80633f494b021461028057806342842e0e1461029c57806354ea7b07146102b8576101a9565b806301ffc9a7146101ae57806306fdde03146101de578063081812fc146101fc578063095ea7b31461022c578063157a61121461024857806323b872dd14610264575b600080fd5b6101c860048036038101906101c39190612fc7565b6105a0565b6040516101d5919061300f565b60405180910390f35b6101e66105b2565b6040516101f391906130ba565b60405180910390f35b61021660048036038101906102119190613112565b610644565b6040516102239190613180565b60405180910390f35b610246600480360381019061024191906131c7565b61068a565b005b610262600480360381019061025d9190613233565b6107a1565b005b61027e600480360381019061027991906132ae565b610a50565b005b61029a60048036038101906102959190613366565b610ab0565b005b6102b660048036038101906102b191906132ae565b610c6b565b005b6102c0610c8b565b6040516102cd9190613180565b60405180910390f35b6102f060048036038101906102eb9190613112565b610cb1565b6040516102fd9190613180565b60405180910390f35b610320600480360381019061031b91906133c6565b610d37565b60405161032d9190613402565b60405180910390f35b61033e610dee565b005b61035a60048036038101906103559190613112565b610e02565b6040516103679190613701565b60405180910390f35b61038a600480360381019061038591906133c6565b610fc3565b6040516103979190613402565b60405180910390f35b6103a861100c565b6040516103b59190613180565b60405180910390f35b6103d860048036038101906103d39190613748565b611036565b6040516103e591906130ba565b60405180910390f35b6103f66110d6565b60405161040391906130ba565b60405180910390f35b610426600480360381019061042191906133c6565b611168565b005b610442600480360381019061043d9190613775565b611223565b005b61045e600480360381019061045991906138e5565b611239565b005b61047a60048036038101906104759190613748565b61129b565b60405161048791906130ba565b60405180910390f35b6104aa60048036038101906104a591906133c6565b61133b565b6040516104b79190613402565b60405180910390f35b6104da60048036038101906104d59190613112565b611353565b6040516104eb959493929190613977565b60405180910390f35b61050e60048036038101906105099190613112565b611396565b60405161051b91906130ba565b60405180910390f35b61053e600480360381019061053991906139ca565b6113a8565b60405161054b919061300f565b60405180910390f35b61056e600480360381019061056991906133c6565b61143c565b60405161057b9190613402565b60405180910390f35b61059e600480360381019061059991906133c6565b61163d565b005b60006105ab826116c0565b9050919050565b6060600080546105c190613a39565b80601f01602080910402602001604051908101604052809291908181526020018280546105ed90613a39565b801561063a5780601f1061060f5761010080835404028352916020019161063a565b820191906000526020600020905b81548152906001019060200180831161061d57829003601f168201915b5050505050905090565b600061064f82611721565b6004600083815260200190815260200160002060009054906101000a900473ffffffffffffffffffffffffffffffffffffffff169050919050565b600061069582610cb1565b90508073ffffffffffffffffffffffffffffffffffffffff168373ffffffffffffffffffffffffffffffffffffffff1603610705576040517f08c379a00000000000000000000000000000000000000000000000000000000081526004016106fc90613adc565b60405180910390fd5b8073ffffffffffffffffffffffffffffffffffffffff1661072461176c565b73ffffffffffffffffffffffffffffffffffffffff16148061075357506107528161074d61176c565b6113a8565b5b610792576040517f08c379a000000000000000000000000000000000000000000000000000000000815260040161078990613b6e565b60405180910390fd5b61079c8383611774565b505050565b600960009054906101000a900473ffffffffffffffffffffffffffffffffffffffff1673ffffffffffffffffffffffffffffffffffffffff163373ffffffffffffffffffffffffffffffffffffffff1614610831576040517f08c379a000000000000000000000000000000000000000000000000000000000815260040161082890613bda565b60405180910390fd5b6000600b60008773ffffffffffffffffffffffffffffffffffffffff1673ffffffffffffffffffffffffffffffffffffffff16815260200190815260200160002054905060008103610889576108868661143c565b90505b6000600a60008381526020019081526020016000209050858160000160008282546108b49190613c29565b9250508190555060018160010160008282546108d09190613c29565b92505081905550848160020160008282546108eb9190613c29565b9250508190555042816003018190555083156109655780600601839080600181540180825580915050600190039060005260206000200160009091909190915055817ff19d2eee83265e10390451d0545961d4c69ea225bc9752aa05246fc36d8882cc8460405161095c9190613402565b60405180910390a25b6000610974826000015461182d565b90508160040160009054906101000a900460ff16600481111561099a5761099961342c565b5b8160048111156109ad576109ac61342c565b5b146109df57808260040160006101000a81548160ff021916908360048111156109d9576109d861342c565b5b02179055505b6109f1836109ec85611880565b611992565b8773ffffffffffffffffffffffffffffffffffffffff16837ff9acbd40b6dd940256434cd7bf9a7a60c1f9f48c4edaeffe345f994e1923e0f2846000015484604051610a3e929190613c5d565b60405180910390a35050505050505050565b610a61610a5b61176c565b82611a36565b610aa0576040517f08c379a0000000000000000000000000000000000000000000000000000000008152600401610a9790613cf8565b60405180910390fd5b610aab838383611acb565b505050565b600960009054906101000a900473ffffffffffffffffffffffffffffffffffffffff1673ffffffffffffffffffffffffffffffffffffffff163373ffffffffffffffffffffffffffffffffffffffff1614610b40576040517f08c379a0000000000000000000000000000000000000000000000000000000008152600401610b3790613bda565b60405180910390fd5b6000600b60008573ffffffffffffffffffffffffffffffffffffffff1673ffffffffffffffffffffffffffffffffffffffff16815260200190815260200160002054905060008111610bc7576040517f08c379a0000000000000000000000000000000000000000000000000000000008152600401610bbe90613d64565b60405180910390fd5b600a6000828152602001908152602001600020600501838390918060018154018082558091505060019003906000526020600020016000909192909192909192909192509182610c18929190613f3b565b50610c2b81610c2683611880565b611992565b807f7d6ff59c70fde0f5dcbe2594450ee4e065a051555626eb77ca0e120db0dd9ead8484604051610c5d929190614038565b60405180910390a250505050565b610c8683838360405180602001604052806000815250611239565b505050565b600960009054906101000a900473ffffffffffffffffffffffffffffffffffffffff1681565b600080610cbd83611dc4565b9050600073ffffffffffffffffffffffffffffffffffffffff168173ffffffffffffffffffffffffffffffffffffffff1603610d2e576040517f08c379a0000000000000000000000000000000000000000000000000000000008152600401610d25906140a8565b60405180910390fd5b80915050919050565b60008073ffffffffffffffffffffffffffffffffffffffff168273ffffffffffffffffffffffffffffffffffffffff1603610da7576040517f08c379a0000000000000000000000000000000000000000000000000000000008152600401610d9e9061413a565b60405180910390fd5b600360008373ffffffffffffffffffffffffffffffffffffffff1673ffffffffffffffffffffffffffffffffffffffff168152602001908152602001600020549050919050565b610df6611e01565b610e006000611e7f565b565b610e0a612f0c565b600a60008381526020019081526020016000206040518060e0016040529081600082015481526020016001820154815260200160028201548152602001600382015481526020016004820160009054906101000a900460ff166004811115610e7557610e7461342c565b5b6004811115610e8757610e8661342c565b5b815260200160058201805480602002602001604051908101604052809291908181526020016000905b82821015610f5c578382906000526020600020018054610ecf90613a39565b80601f0160208091040260200160405190810160405280929190818152602001828054610efb90613a39565b8015610f485780601f10610f1d57610100808354040283529160200191610f48565b820191906000526020600020905b815481529060010190602001808311610f2b57829003601f168201915b505050505081526020019060010190610eb0565b50505050815260200160068201805480602002602001604051908101604052809291908181526020018280548015610fb357602002820191906000526020600020905b815481526020019060010190808311610f9f575b5050505050815250509050919050565b6000600b60008373ffffffffffffffffffffffffffffffffffffffff1673ffffffffffffffffffffffffffffffffffffffff168152602001908152602001600020549050919050565b6000600760009054906101000a900473ffffffffffffffffffffffffffffffffffffffff16905090565b600d602052806000526040600020600091509050805461105590613a39565b80601f016020809104026020016040519081016040528092919081815260200182805461108190613a39565b80156110ce5780601f106110a3576101008083540402835291602001916110ce565b820191906000526020600020905b8154815290600101906020018083116110b157829003601f168201915b505050505081565b6060600180546110e590613a39565b80601f016020809104026020016040519081016040528092919081815260200182805461111190613a39565b801561115e5780601f106111335761010080835404028352916020019161115e565b820191906000526020600020905b81548152906001019060200180831161114157829003601f168201915b5050505050905090565b611170611e01565b600073ffffffffffffffffffffffffffffffffffffffff168173ffffffffffffffffffffffffffffffffffffffff16036111df576040517f08c379a00000000000000000000000000000000000000000000000000000000081526004016111d6906141a6565b60405180910390fd5b80600960006101000a81548173ffffffffffffffffffffffffffffffffffffffff021916908373ffffffffffffffffffffffffffffffffffffffff16021790555050565b61123561122e61176c565b8383611f45565b5050565b61124a61124461176c565b83611a36565b611289576040517f08c379a000000000000000000000000000000000000000000000000000000000815260040161128090613cf8565b60405180910390fd5b611295848484846120b1565b50505050565b600c60205280600052604060002060009150905080546112ba90613a39565b80601f01602080910402602001604051908101604052809291908181526020018280546112e690613a39565b80156113335780601f1061130857610100808354040283529160200191611333565b820191906000526020600020905b81548152906001019060200180831161131657829003601f168201915b505050505081565b600b6020528060005260406000206000915090505481565b600a6020528060005260406000206000915090508060000154908060010154908060020154908060030154908060040160009054906101000a900460ff16905085565b60606113a18261210d565b9050919050565b6000600560008473ffffffffffffffffffffffffffffffffffffffff1673ffffffffffffffffffffffffffffffffffffffff16815260200190815260200160002060008373ffffffffffffffffffffffffffffffffffffffff1673ffffffffffffffffffffffffffffffffffffffff16815260200190815260200160002060009054906101000a900460ff16905092915050565b6000600960009054906101000a900473ffffffffffffffffffffffffffffffffffffffff1673ffffffffffffffffffffffffffffffffffffffff163373ffffffffffffffffffffffffffffffffffffffff16146114ce576040517f08c379a00000000000000000000000000000000000000000000000000000000081526004016114c590613bda565b60405180910390fd5b6000600b60008473ffffffffffffffffffffffffffffffffffffffff1673ffffffffffffffffffffffffffffffffffffffff1681526020019081526020016000205414611550576040517f08c379a000000000000000000000000000000000000000000000000000000000815260040161154790614212565b60405180910390fd5b61155a600861221f565b60006115666008612235565b90506115728382612243565b6000600a6000838152602001908152602001600020905060008160000181905550600081600101819055506000816002018190555042816003018190555060008160040160006101000a81548160ff021916908360048111156115d8576115d761342c565b5b021790555081600b60008673ffffffffffffffffffffffffffffffffffffffff1673ffffffffffffffffffffffffffffffffffffffff168152602001908152602001600020819055506116338261162e84611880565b611992565b8192505050919050565b611645611e01565b600073ffffffffffffffffffffffffffffffffffffffff168173ffffffffffffffffffffffffffffffffffffffff16036116b4576040517f08c379a00000000000000000000000000000000000000000000000000000000081526004016116ab906142a4565b60405180910390fd5b6116bd81611e7f565b50565b6000634906490660e01b7bffffffffffffffffffffffffffffffffffffffffffffffffffffffff1916827bffffffffffffffffffffffffffffffffffffffffffffffffffffffff1916148061171a575061171982612261565b5b9050919050565b61172a81612343565b611769576040517f08c379a0000000000000000000000000000000000000000000000000000000008152600401611760906140a8565b60405180910390fd5b50565b600033905090565b816004600083815260200190815260200160002060006101000a81548173ffffffffffffffffffffffffffffffffffffffff021916908373ffffffffffffffffffffffffffffffffffffffff160217905550808273ffffffffffffffffffffffffffffffffffffffff166117e783610cb1565b73ffffffffffffffffffffffffffffffffffffffff167f8c5be1e5ebec7d5bd14f71427d1e84f3dd0314c0f7b2291e5b200ac8c7c3b92560405160405180910390a45050565b60006113888210611841576004905061187b565b6105dd8210611853576003905061187b565b6101f58210611865576002905061187b565b60658210611876576001905061187b565b600090505b919050565b60606000600a6000848152602001908152602001600020905060006118a484612384565b905060006118b1856125aa565b6118ba83612678565b600c60008660040160009054906101000a900460ff1660048111156118e2576118e161342c565b5b60048111156118f4576118f361342c565b5b815260200190815260200160002061190f86600001546125aa565b61191c87600101546125aa565b61192c88600601805490506125aa565b61193989600201546125aa565b60405160200161194f979695949392919061488f565b604051602081830303815290604052905061196981612678565b60405160200161197991906149e5565b6040516020818303038152906040529350505050919050565b61199b82612343565b6119da576040517f08c379a00000000000000000000000000000000000000000000000000000000081526004016119d190614a79565b60405180910390fd5b806006600084815260200190815260200160002090816119fa9190614a99565b507ff8e1a15aba9398e019f0b49df1a4fde98ee17ae345cb5f6b5e2c27f5033e8ce782604051611a2a9190613402565b60405180910390a15050565b600080611a4283610cb1565b90508073ffffffffffffffffffffffffffffffffffffffff168473ffffffffffffffffffffffffffffffffffffffff161480611a845750611a8381856113a8565b5b80611ac257508373ffffffffffffffffffffffffffffffffffffffff16611aaa84610644565b73ffffffffffffffffffffffffffffffffffffffff16145b91505092915050565b8273ffffffffffffffffffffffffffffffffffffffff16611aeb82610cb1565b73ffffffffffffffffffffffffffffffffffffffff1614611b41576040517f08c379a0000000000000000000000000000000000000000000000000000000008152600401611b3890614bdd565b60405180910390fd5b600073ffffffffffffffffffffffffffffffffffffffff168273ffffffffffffffffffffffffffffffffffffffff1603611bb0576040517f08c379a0000000000000000000000000000000000000000000000000000000008152600401611ba790614c6f565b60405180910390fd5b611bbd83838360016127ea565b8273ffffffffffffffffffffffffffffffffffffffff16611bdd82610cb1565b73ffffffffffffffffffffffffffffffffffffffff1614611c33576040517f08c379a0000000000000000000000000000000000000000000000000000000008152600401611c2a90614bdd565b60405180910390fd5b6004600082815260200190815260200160002060006101000a81549073ffffffffffffffffffffffffffffffffffffffff02191690556001600360008573ffffffffffffffffffffffffffffffffffffffff1673ffffffffffffffffffffffffffffffffffffffff168152602001908152602001600020600082825403925050819055506001600360008473ffffffffffffffffffffffffffffffffffffffff1673ffffffffffffffffffffffffffffffffffffffff16815260200190815260200160002060008282540192505081905550816002600083815260200190815260200160002060006101000a81548173ffffffffffffffffffffffffffffffffffffffff021916908373ffffffffffffffffffffffffffffffffffffffff160217905550808273ffffffffffffffffffffffffffffffffffffffff168473ffffffffffffffffffffffffffffffffffffffff167fddf252ad1be2c89b69c2b068fc378daa952ba7f163c4a11628f55a4df523b3ef60405160405180910390a4611dbf83838360016128a2565b505050565b60006002600083815260200190815260200160002060009054906101000a900473ffffffffffffffffffffffffffffffffffffffff169050919050565b611e0961176c565b73ffffffffffffffffffffffffffffffffffffffff16611e2761100c565b73ffffffffffffffffffffffffffffffffffffffff1614611e7d576040517f08c379a0000000000000000000000000000000000000000000000000000000008152600401611e7490614cdb565b60405180910390fd5b565b6000600760009054906101000a900473ffffffffffffffffffffffffffffffffffffffff16905081600760006101000a81548173ffffffffffffffffffffffffffffffffffffffff021916908373ffffffffffffffffffffffffffffffffffffffff1602179055508173ffffffffffffffffffffffffffffffffffffffff168173ffffffffffffffffffffffffffffffffffffffff167f8be0079c531659141344cd1fd0a4f28419497f9722a3daafe3b4186f6b6457e060405160405180910390a35050565b8173ffffffffffffffffffffffffffffffffffffffff168373ffffffffffffffffffffffffffffffffffffffff1603611fb3576040517f08c379a0000000000000000000000000000000000000000000000000000000008152600401611faa90614d47565b60405180910390fd5b80600560008573ffffffffffffffffffffffffffffffffffffffff1673ffffffffffffffffffffffffffffffffffffffff16815260200190815260200160002060008473ffffffffffffffffffffffffffffffffffffffff1673ffffffffffffffffffffffffffffffffffffffff16815260200190815260200160002060006101000a81548160ff0219169083151502179055508173ffffffffffffffffffffffffffffffffffffffff168373ffffffffffffffffffffffffffffffffffffffff167f17307eab39ab6107e8899845ad3d59bd9653f200f220920489ca2b5937696c31836040516120a4919061300f565b60405180910390a3505050565b6120bc848484611acb565b6120c8848484846128a8565b612107576040517f08c379a00000000000000000000000000000000000000000000000000000000081526004016120fe90614dd9565b60405180910390fd5b50505050565b606061211882611721565b600060066000848152602001908152602001600020805461213890613a39565b80601f016020809104026020016040519081016040528092919081815260200182805461216490613a39565b80156121b15780601f10612186576101008083540402835291602001916121b1565b820191906000526020600020905b81548152906001019060200180831161219457829003601f168201915b5050505050905060006121c2612a2f565b905060008151036121d757819250505061221a565b60008251111561220c5780826040516020016121f4929190614df9565b6040516020818303038152906040529250505061221a565b61221584612a46565b925050505b919050565b6001816000016000828254019250508190555050565b600081600001549050919050565b61225d828260405180602001604052806000815250612aae565b5050565b60007f80ac58cd000000000000000000000000000000000000000000000000000000007bffffffffffffffffffffffffffffffffffffffffffffffffffffffff1916827bffffffffffffffffffffffffffffffffffffffffffffffffffffffff1916148061232c57507f5b5e139f000000000000000000000000000000000000000000000000000000007bffffffffffffffffffffffffffffffffffffffffffffffffffffffff1916827bffffffffffffffffffffffffffffffffffffffffffffffffffffffff1916145b8061233c575061233b82612b09565b5b9050919050565b60008073ffffffffffffffffffffffffffffffffffffffff1661236583611dc4565b73ffffffffffffffffffffffffffffffffffffffff1614159050919050565b60606000600a600084815260200190815260200160002090506000600d60008360040160009054906101000a900460ff1660048111156123c7576123c661342c565b5b60048111156123d9576123d861342c565b5b815260200190815260200160002080546123f290613a39565b80601f016020809104026020016040519081016040528092919081815260200182805461241e90613a39565b801561246b5780601f106124405761010080835404028352916020019161246b565b820191906000526020600020905b81548152906001019060200180831161244e57829003601f168201915b505050505090506000600c60008460040160009054906101000a900460ff16600481111561249c5761249b61342c565b5b60048111156124ae576124ad61342c565b5b815260200190815260200160002080546124c790613a39565b80601f01602080910402602001604051908101604052809291908181526020018280546124f390613a39565b80156125405780601f1061251557610100808354040283529160200191612540565b820191906000526020600020905b81548152906001019060200180831161252357829003601f168201915b50505050509050818161255685600001546125aa565b61256386600101546125aa565b61257387600601805490506125aa565b61257c8a6125aa565b604051602001612591969594939291906157c3565b6040516020818303038152906040529350505050919050565b6060600060016125b984612b73565b01905060008167ffffffffffffffff8111156125d8576125d76137ba565b5b6040519080825280601f01601f19166020018201604052801561260a5781602001600182028036833780820191505090505b509050600082602001820190505b60011561266d578080600190039150507f3031323334353637383961626364656600000000000000000000000000000000600a86061a8153600a85816126615761266061594f565b5b04945060008503612618575b819350505050919050565b6060600082510361269a576040518060200160405280600081525090506127e5565b6000604051806060016040528060408152602001615c1960409139905060006003600285516126c99190613c29565b6126d3919061597e565b60046126df91906159af565b67ffffffffffffffff8111156126f8576126f76137ba565b5b6040519080825280601f01601f19166020018201604052801561272a5781602001600182028036833780820191505090505b50905060018201602082018586518701602081018051600082525b828410156127a0576003840193508351603f8160121c168701518653600186019550603f81600c1c168701518653600186019550603f8160061c168701518653600186019550603f8116870151865360018601955050612745565b80825260038a5106600181146127bd57600281146127d0576127d8565b603d6001870353603d60028703536127d8565b603d60018703535b5050505050505080925050505b919050565b600073ffffffffffffffffffffffffffffffffffffffff168473ffffffffffffffffffffffffffffffffffffffff1614806128515750600073ffffffffffffffffffffffffffffffffffffffff168373ffffffffffffffffffffffffffffffffffffffff16145b612890576040517f08c379a000000000000000000000000000000000000000000000000000000000815260040161288790615a3d565b60405180910390fd5b61289c84848484612cc6565b50505050565b50505050565b60006128c98473ffffffffffffffffffffffffffffffffffffffff16612ccc565b15612a22578373ffffffffffffffffffffffffffffffffffffffff1663150b7a026128f261176c565b8786866040518563ffffffff1660e01b81526004016129149493929190615ab2565b6020604051808303816000875af192505050801561295057506040513d601f19601f8201168201806040525081019061294d9190615b13565b60015b6129d2573d8060008114612980576040519150601f19603f3d011682016040523d82523d6000602084013e612985565b606091505b5060008151036129ca576040517f08c379a00000000000000000000000000000000000000000000000000000000081526004016129c190614dd9565b60405180910390fd5b805181602001fd5b63150b7a0260e01b7bffffffffffffffffffffffffffffffffffffffffffffffffffffffff1916817bffffffffffffffffffffffffffffffffffffffffffffffffffffffff191614915050612a27565b600190505b949350505050565b606060405180602001604052806000815250905090565b6060612a5182611721565b6000612a5b612a2f565b90506000815111612a7b5760405180602001604052806000815250612aa6565b80612a85846125aa565b604051602001612a96929190614df9565b6040516020818303038152906040525b915050919050565b612ab88383612cef565b612ac560008484846128a8565b612b04576040517f08c379a0000000000000000000000000000000000000000000000000000000008152600401612afb90614dd9565b60405180910390fd5b505050565b60007f01ffc9a7000000000000000000000000000000000000000000000000000000007bffffffffffffffffffffffffffffffffffffffffffffffffffffffff1916827bffffffffffffffffffffffffffffffffffffffffffffffffffffffff1916149050919050565b600080600090507a184f03e93ff9f4daa797ed6e38ed64bf6a1f0100000000000000008310612bd1577a184f03e93ff9f4daa797ed6e38ed64bf6a1f0100000000000000008381612bc757612bc661594f565b5b0492506040810190505b6d04ee2d6d415b85acef81000000008310612c0e576d04ee2d6d415b85acef81000000008381612c0457612c0361594f565b5b0492506020810190505b662386f26fc100008310612c3d57662386f26fc100008381612c3357612c3261594f565b5b0492506010810190505b6305f5e1008310612c66576305f5e1008381612c5c57612c5b61594f565b5b0492506008810190505b6127108310612c8b576127108381612c8157612c8061594f565b5b0492506004810190505b60648310612cae5760648381612ca457612ca361594f565b5b0492506002810190505b600a8310612cbd576001810190505b80915050919050565b50505050565b6000808273ffffffffffffffffffffffffffffffffffffffff163b119050919050565b600073ffffffffffffffffffffffffffffffffffffffff168273ffffffffffffffffffffffffffffffffffffffff1603612d5e576040517f08c379a0000000000000000000000000000000000000000000000000000000008152600401612d5590615b8c565b60405180910390fd5b612d6781612343565b15612da7576040517f08c379a0000000000000000000000000000000000000000000000000000000008152600401612d9e90615bf8565b60405180910390fd5b612db56000838360016127ea565b612dbe81612343565b15612dfe576040517f08c379a0000000000000000000000000000000000000000000000000000000008152600401612df590615bf8565b60405180910390fd5b6001600360008473ffffffffffffffffffffffffffffffffffffffff1673ffffffffffffffffffffffffffffffffffffffff16815260200190815260200160002060008282540192505081905550816002600083815260200190815260200160002060006101000a81548173ffffffffffffffffffffffffffffffffffffffff021916908373ffffffffffffffffffffffffffffffffffffffff160217905550808273ffffffffffffffffffffffffffffffffffffffff16600073ffffffffffffffffffffffffffffffffffffffff167fddf252ad1be2c89b69c2b068fc378daa952ba7f163c4a11628f55a4df523b3ef60405160405180910390a4612f086000838360016128a2565b5050565b6040518060e001604052806000815260200160008152602001600081526020016000815260200160006004811115612f4757612f4661342c565b5b815260200160608152602001606081525090565b6000604051905090565b600080fd5b600080fd5b60007fffffffff0000000000000000000000000000000000000000000000000000000082169050919050565b612fa481612f6f565b8114612faf57600080fd5b50565b600081359050612fc181612f9b565b92915050565b600060208284031215612fdd57612fdc612f65565b5b6000612feb84828501612fb2565b91505092915050565b60008115159050919050565b61300981612ff4565b82525050565b60006020820190506130246000830184613000565b92915050565b600081519050919050565b600082825260208201905092915050565b60005b83811015613064578082015181840152602081019050613049565b60008484015250505050565b6000601f19601f8301169050919050565b600061308c8261302a565b6130968185613035565b93506130a6818560208601613046565b6130af81613070565b840191505092915050565b600060208201905081810360008301526130d48184613081565b905092915050565b6000819050919050565b6130ef816130dc565b81146130fa57600080fd5b50565b60008135905061310c816130e6565b92915050565b60006020828403121561312857613127612f65565b5b6000613136848285016130fd565b91505092915050565b600073ffffffffffffffffffffffffffffffffffffffff82169050919050565b600061316a8261313f565b9050919050565b61317a8161315f565b82525050565b60006020820190506131956000830184613171565b92915050565b6131a48161315f565b81146131af57600080fd5b50565b6000813590506131c18161319b565b92915050565b600080604083850312156131de576131dd612f65565b5b60006131ec858286016131b2565b92505060206131fd858286016130fd565b9150509250929050565b61321081612ff4565b811461321b57600080fd5b50565b60008135905061322d81613207565b92915050565b600080600080600060a0868803121561324f5761324e612f65565b5b600061325d888289016131b2565b955050602061326e888289016130fd565b945050604061327f888289016130fd565b93505060606132908882890161321e565b92505060806132a1888289016130fd565b9150509295509295909350565b6000806000606084860312156132c7576132c6612f65565b5b60006132d5868287016131b2565b93505060206132e6868287016131b2565b92505060406132f7868287016130fd565b9150509250925092565b600080fd5b600080fd5b600080fd5b60008083601f84011261332657613325613301565b5b8235905067ffffffffffffffff81111561334357613342613306565b5b60208301915083600182028301111561335f5761335e61330b565b5b9250929050565b60008060006040848603121561337f5761337e612f65565b5b600061338d868287016131b2565b935050602084013567ffffffffffffffff8111156133ae576133ad612f6a565b5b6133ba86828701613310565b92509250509250925092565b6000602082840312156133dc576133db612f65565b5b60006133ea848285016131b2565b91505092915050565b6133fc816130dc565b82525050565b600060208201905061341760008301846133f3565b92915050565b613426816130dc565b82525050565b7f4e487b7100000000000000000000000000000000000000000000000000000000600052602160045260246000fd5b6005811061346c5761346b61342c565b5b50565b600081905061347d8261345b565b919050565b600061348d8261346f565b9050919050565b61349d81613482565b82525050565b600081519050919050565b600082825260208201905092915050565b6000819050602082019050919050565b600082825260208201905092915050565b60006134eb8261302a565b6134f581856134cf565b9350613505818560208601613046565b61350e81613070565b840191505092915050565b600061352583836134e0565b905092915050565b6000602082019050919050565b6000613545826134a3565b61354f81856134ae565b935083602082028501613561856134bf565b8060005b8581101561359d578484038952815161357e8582613519565b94506135898361352d565b925060208a01995050600181019050613565565b50829750879550505050505092915050565b600081519050919050565b600082825260208201905092915050565b6000819050602082019050919050565b60006135e7838361341d565b60208301905092915050565b6000602082019050919050565b600061360b826135af565b61361581856135ba565b9350613620836135cb565b8060005b8381101561365157815161363888826135db565b9750613643836135f3565b925050600181019050613624565b5085935050505092915050565b600060e083016000830151613676600086018261341d565b506020830151613689602086018261341d565b50604083015161369c604086018261341d565b5060608301516136af606086018261341d565b5060808301516136c26080860182613494565b5060a083015184820360a08601526136da828261353a565b91505060c083015184820360c08601526136f48282613600565b9150508091505092915050565b6000602082019050818103600083015261371b818461365e565b905092915050565b6005811061373057600080fd5b50565b60008135905061374281613723565b92915050565b60006020828403121561375e5761375d612f65565b5b600061376c84828501613733565b91505092915050565b6000806040838503121561378c5761378b612f65565b5b600061379a858286016131b2565b92505060206137ab8582860161321e565b9150509250929050565b600080fd5b7f4e487b7100000000000000000000000000000000000000000000000000000000600052604160045260246000fd5b6137f282613070565b810181811067ffffffffffffffff82111715613811576138106137ba565b5b80604052505050565b6000613824612f5b565b905061383082826137e9565b919050565b600067ffffffffffffffff8211156138505761384f6137ba565b5b61385982613070565b9050602081019050919050565b82818337600083830152505050565b600061388861388384613835565b61381a565b9050828152602081018484840111156138a4576138a36137b5565b5b6138af848285613866565b509392505050565b600082601f8301126138cc576138cb613301565b5b81356138dc848260208601613875565b91505092915050565b600080600080608085870312156138ff576138fe612f65565b5b600061390d878288016131b2565b945050602061391e878288016131b2565b935050604061392f878288016130fd565b925050606085013567ffffffffffffffff8111156139505761394f612f6a565b5b61395c878288016138b7565b91505092959194509250565b61397181613482565b82525050565b600060a08201905061398c60008301886133f3565b61399960208301876133f3565b6139a660408301866133f3565b6139b360608301856133f3565b6139c06080830184613968565b9695505050505050565b600080604083850312156139e1576139e0612f65565b5b60006139ef858286016131b2565b9250506020613a00858286016131b2565b9150509250929050565b7f4e487b7100000000000000000000000000000000000000000000000000000000600052602260045260246000fd5b60006002820490506001821680613a5157607f821691505b602082108103613a6457613a63613a0a565b5b50919050565b7f4552433732313a20617070726f76616c20746f2063757272656e74206f776e6560008201527f7200000000000000000000000000000000000000000000000000000000000000602082015250565b6000613ac6602183613035565b9150613ad182613a6a565b604082019050919050565b60006020820190508181036000830152613af581613ab9565b9050919050565b7f4552433732313a20617070726f76652063616c6c6572206973206e6f7420746f60008201527f6b656e206f776e6572206f7220617070726f76656420666f7220616c6c000000602082015250565b6000613b58603d83613035565b9150613b6382613afc565b604082019050919050565b60006020820190508181036000830152613b8781613b4b565b9050919050565b7f4f6e6c7920726567697374727920636f6e747261637400000000000000000000600082015250565b6000613bc4601683613035565b9150613bcf82613b8e565b602082019050919050565b60006020820190508181036000830152613bf381613bb7565b9050919050565b7f4e487b7100000000000000000000000000000000000000000000000000000000600052601160045260246000fd5b6000613c34826130dc565b9150613c3f836130dc565b9250828201905080821115613c5757613c56613bfa565b5b92915050565b6000604082019050613c7260008301856133f3565b613c7f6020830184613968565b9392505050565b7f4552433732313a2063616c6c6572206973206e6f7420746f6b656e206f776e6560008201527f72206f7220617070726f76656400000000000000000000000000000000000000602082015250565b6000613ce2602d83613035565b9150613ced82613c86565b604082019050919050565b60006020820190508181036000830152613d1181613cd5565b9050919050565b7f4e465420646f6573206e6f742065786973740000000000000000000000000000600082015250565b6000613d4e601283613035565b9150613d5982613d18565b602082019050919050565b60006020820190508181036000830152613d7d81613d41565b9050919050565b600082905092915050565b60008190508160005260206000209050919050565b60006020601f8301049050919050565b600082821b905092915050565b600060088302613df17fffffffffffffffffffffffffffffffffffffffffffffffffffffffffffffffff82613db4565b613dfb8683613db4565b95508019841693508086168417925050509392505050565b6000819050919050565b6000613e38613e33613e2e846130dc565b613e13565b6130dc565b9050919050565b6000819050919050565b613e5283613e1d565b613e66613e5e82613e3f565b848454613dc1565b825550505050565b600090565b613e7b613e6e565b613e86818484613e49565b505050565b5b81811015613eaa57613e9f600082613e73565b600181019050613e8c565b5050565b601f821115613eef57613ec081613d8f565b613ec984613da4565b81016020851015613ed8578190505b613eec613ee485613da4565b830182613e8b565b50505b505050565b600082821c905092915050565b6000613f1260001984600802613ef4565b1980831691505092915050565b6000613f2b8383613f01565b9150826002028217905092915050565b613f458383613d84565b67ffffffffffffffff811115613f5e57613f5d6137ba565b5b613f688254613a39565b613f73828285613eae565b6000601f831160018114613fa25760008415613f90578287013590505b613f9a8582613f1f565b865550614002565b601f198416613fb086613d8f565b60005b82811015613fd857848901358255600182019150602085019450602081019050613fb3565b86831015613ff55784890135613ff1601f891682613f01565b8355505b6001600288020188555050505b50505050505050565b60006140178385613035565b9350614024838584613866565b61402d83613070565b840190509392505050565b6000602082019050818103600083015261405381848661400b565b90509392505050565b7f4552433732313a20696e76616c696420746f6b656e2049440000000000000000600082015250565b6000614092601883613035565b915061409d8261405c565b602082019050919050565b600060208201905081810360008301526140c181614085565b9050919050565b7f4552433732313a2061646472657373207a65726f206973206e6f74206120766160008201527f6c6964206f776e65720000000000000000000000000000000000000000000000602082015250565b6000614124602983613035565b915061412f826140c8565b604082019050919050565b6000602082019050818103600083015261415381614117565b9050919050565b7f496e76616c696420726567697374727920616464726573730000000000000000600082015250565b6000614190601883613035565b915061419b8261415a565b602082019050919050565b600060208201905081810360008301526141bf81614183565b9050919050565b7f4e465420616c7265616479206578697374730000000000000000000000000000600082015250565b60006141fc601283613035565b9150614207826141c6565b602082019050919050565b6000602082019050818103600083015261422b816141ef565b9050919050565b7f4f776e61626c653a206e6577206f776e657220697320746865207a65726f206160008201527f6464726573730000000000000000000000000000000000000000000000000000602082015250565b600061428e602683613035565b915061429982614232565b604082019050919050565b600060208201905081810360008301526142bd81614281565b9050919050565b600081905092915050565b7f7b226e616d65223a202253656375726974792052657365617263686572202300600082015250565b6000614305601f836142c4565b9150614310826142cf565b601f82019050919050565b60006143268261302a565b61433081856142c4565b9350614340818560208601613046565b80840191505092915050565b7f222c20226465736372697074696f6e223a2022446563656e7472616c697a656460008201527f2056756c6e65726162696c69747920446174616261736520526570757461746960208201527f6f6e204e4654222c000000000000000000000000000000000000000000000000604082015250565b60006143ce6048836142c4565b91506143d98261434c565b604882019050919050565b7f22696d616765223a2022646174613a696d6167652f7376672b786d6c3b62617360008201527f6536342c00000000000000000000000000000000000000000000000000000000602082015250565b60006144406024836142c4565b915061444b826143e4565b602482019050919050565b7f222c202261747472696275746573223a205b0000000000000000000000000000600082015250565b600061448c6012836142c4565b915061449782614456565b601282019050919050565b7f7b2274726169745f74797065223a20224c6576656c222c202276616c7565223a60008201527f2022000000000000000000000000000000000000000000000000000000000000602082015250565b60006144fe6022836142c4565b9150614509826144a2565b602282019050919050565b6000815461452181613a39565b61452b81866142c4565b94506001821660008114614546576001811461455b5761458e565b60ff198316865281151582028601935061458e565b61456485613d8f565b60005b8381101561458657815481890152600182019150602081019050614567565b838801955050505b50505092915050565b7f227d2c0000000000000000000000000000000000000000000000000000000000600082015250565b60006145cd6003836142c4565b91506145d882614597565b600382019050919050565b7f7b2274726169745f74797065223a202252657075746174696f6e2053636f726560008201527f222c202276616c7565223a200000000000000000000000000000000000000000602082015250565b600061463f602c836142c4565b915061464a826145e3565b602c82019050919050565b7f7d2c000000000000000000000000000000000000000000000000000000000000600082015250565b600061468b6002836142c4565b915061469682614655565b600282019050919050565b7f7b2274726169745f74797065223a202256756c6e65726162696c69746965732060008201527f466f756e64222c202276616c7565223a20000000000000000000000000000000602082015250565b60006146fd6031836142c4565b9150614708826146a1565b603182019050919050565b7f7b2274726169745f74797065223a2022437269746963616c2046696e6473222c60008201527f202276616c7565223a2000000000000000000000000000000000000000000000602082015250565b600061476f602a836142c4565b915061477a82614713565b602a82019050919050565b7f7b2274726169745f74797065223a2022546f74616c204561726e696e6773222c60008201527f202276616c7565223a2000000000000000000000000000000000000000000000602082015250565b60006147e1602a836142c4565b91506147ec82614785565b602a82019050919050565b7f7d00000000000000000000000000000000000000000000000000000000000000600082015250565b600061482d6001836142c4565b9150614838826147f7565b600182019050919050565b7f5d7d000000000000000000000000000000000000000000000000000000000000600082015250565b60006148796002836142c4565b915061488482614843565b600282019050919050565b600061489a826142f8565b91506148a6828a61431b565b91506148b1826143c1565b91506148bc82614433565b91506148c8828961431b565b91506148d38261447f565b91506148de826144f1565b91506148ea8288614514565b91506148f5826145c0565b915061490082614632565b915061490c828761431b565b91506149178261467e565b9150614922826146f0565b915061492e828661431b565b91506149398261467e565b915061494482614762565b9150614950828561431b565b915061495b8261467e565b9150614966826147d4565b9150614972828461431b565b915061497d82614820565b91506149888261486c565b915081905098975050505050505050565b7f646174613a6170706c69636174696f6e2f6a736f6e3b6261736536342c000000600082015250565b60006149cf601d836142c4565b91506149da82614999565b601d82019050919050565b60006149f0826149c2565b91506149fc828461431b565b915081905092915050565b7f45524337323155524953746f726167653a2055524920736574206f66206e6f6e60008201527f6578697374656e7420746f6b656e000000000000000000000000000000000000602082015250565b6000614a63602e83613035565b9150614a6e82614a07565b604082019050919050565b60006020820190508181036000830152614a9281614a56565b9050919050565b614aa28261302a565b67ffffffffffffffff811115614abb57614aba6137ba565b5b614ac58254613a39565b614ad0828285613eae565b600060209050601f831160018114614b035760008415614af1578287015190505b614afb8582613f1f565b865550614b63565b601f198416614b1186613d8f565b60005b82811015614b3957848901518255600182019150602085019450602081019050614b14565b86831015614b565784890151614b52601f891682613f01565b8355505b6001600288020188555050505b505050505050565b7f4552433732313a207472616e736665722066726f6d20696e636f72726563742060008201527f6f776e6572000000000000000000000000000000000000000000000000000000602082015250565b6000614bc7602583613035565b9150614bd282614b6b565b604082019050919050565b60006020820190508181036000830152614bf681614bba565b9050919050565b7f4552433732313a207472616e7366657220746f20746865207a65726f2061646460008201527f7265737300000000000000000000000000000000000000000000000000000000602082015250565b6000614c59602483613035565b9150614c6482614bfd565b604082019050919050565b60006020820190508181036000830152614c8881614c4c565b9050919050565b7f4f776e61626c653a2063616c6c6572206973206e6f7420746865206f776e6572600082015250565b6000614cc5602083613035565b9150614cd082614c8f565b602082019050919050565b60006020820190508181036000830152614cf481614cb8565b9050919050565b7f4552433732313a20617070726f766520746f2063616c6c657200000000000000600082015250565b6000614d31601983613035565b9150614d3c82614cfb565b602082019050919050565b60006020820190508181036000830152614d6081614d24565b9050919050565b7f4552433732313a207472616e7366657220746f206e6f6e20455243373231526560008201527f63656976657220696d706c656d656e7465720000000000000000000000000000602082015250565b6000614dc3603283613035565b9150614dce82614d67565b604082019050919050565b60006020820190508181036000830152614df281614db6565b9050919050565b6000614e05828561431b565b9150614e11828461431b565b91508190509392505050565b7f3c7376672077696474683d2233353022206865696768743d223335302220766960008201527f6577426f783d2230203020333530203335302220786d6c6e733d22687474703a60208201527f2f2f7777772e77332e6f72672f323030302f737667223e000000000000000000604082015250565b6000614e9f6057836142c4565b9150614eaa82614e1d565b605782019050919050565b7f3c646566733e0000000000000000000000000000000000000000000000000000600082015250565b6000614eeb6006836142c4565b9150614ef682614eb5565b600682019050919050565b7f3c6c696e6561724772616469656e742069643d226267222078313d223025222060008201527f79313d223025222078323d2231303025222079323d2231303025223e00000000602082015250565b6000614f5d603c836142c4565b9150614f6882614f01565b603c82019050919050565b7f3c73746f70206f66667365743d22302522207374796c653d2273746f702d636f60008201527f6c6f723a233161316131613b73746f702d6f7061636974793a3122202f3e0000602082015250565b6000614fcf603e836142c4565b9150614fda82614f73565b603e82019050919050565b7f3c73746f70206f66667365743d223130302522207374796c653d2273746f702d60008201527f636f6c6f723a233264326432643b73746f702d6f7061636974793a3122202f3e602082015250565b60006150416040836142c4565b915061504c82614fe5565b604082019050919050565b7f3c2f6c696e6561724772616469656e743e000000000000000000000000000000600082015250565b600061508d6011836142c4565b915061509882615057565b601182019050919050565b7f3c2f646566733e00000000000000000000000000000000000000000000000000600082015250565b60006150d96007836142c4565b91506150e4826150a3565b600782019050919050565b7f3c726563742077696474683d2233353022206865696768743d2233353022206660008201527f696c6c3d2275726c282362672922202f3e000000000000000000000000000000602082015250565b600061514b6031836142c4565b9150615156826150ef565b603182019050919050565b7f3c636972636c652063783d22313735222063793d223132302220723d2236302260008201527f2066696c6c3d2200000000000000000000000000000000000000000000000000602082015250565b60006151bd6027836142c4565b91506151c882615161565b602782019050919050565b7f22206f7061636974793d22302e3822202f3e0000000000000000000000000000600082015250565b60006152096012836142c4565b9150615214826151d3565b601282019050919050565b7f3c7465787420783d223137352220793d223133302220746578742d616e63686f60008201527f723d226d6964646c65222066696c6c3d2277686974652220666f6e742d73697a60208201527f653d2232342220666f6e742d7765696768743d22626f6c64223e000000000000604082015250565b60006152a1605a836142c4565b91506152ac8261521f565b605a82019050919050565b7ff09f9ba1efb88f00000000000000000000000000000000000000000000000000600082015250565b60006152ed6007836142c4565b91506152f8826152b7565b600782019050919050565b7f3c2f746578743e00000000000000000000000000000000000000000000000000600082015250565b60006153396007836142c4565b915061534482615303565b600782019050919050565b7f3c7465787420783d223137352220793d223230302220746578742d616e63686f60008201527f723d226d6964646c65222066696c6c3d2277686974652220666f6e742d73697a60208201527f653d2231382220666f6e742d7765696768743d22626f6c64223e000000000000604082015250565b60006153d1605a836142c4565b91506153dc8261534f565b605a82019050919050565b7f3c7465787420783d223137352220793d223233302220746578742d616e63686f60008201527f723d226d6964646c65222066696c6c3d22236363636363632220666f6e742d7360208201527f697a653d223134223e0000000000000000000000000000000000000000000000604082015250565b60006154696049836142c4565b9150615474826153e7565b604982019050919050565b7f53636f72653a2000000000000000000000000000000000000000000000000000600082015250565b60006154b56007836142c4565b91506154c08261547f565b600782019050919050565b7f3c7465787420783d223137352220793d223235302220746578742d616e63686f60008201527f723d226d6964646c65222066696c6c3d22236363636363632220666f6e742d7360208201527f697a653d223134223e0000000000000000000000000000000000000000000000604082015250565b600061554d6049836142c4565b9150615558826154cb565b604982019050919050565b7f56756c6e733a2000000000000000000000000000000000000000000000000000600082015250565b60006155996007836142c4565b91506155a482615563565b600782019050919050565b7f3c7465787420783d223137352220793d223237302220746578742d616e63686f60008201527f723d226d6964646c65222066696c6c3d22236363636363632220666f6e742d7360208201527f697a653d223134223e0000000000000000000000000000000000000000000000604082015250565b60006156316049836142c4565b915061563c826155af565b604982019050919050565b7f437269746963616c3a2000000000000000000000000000000000000000000000600082015250565b600061567d600a836142c4565b915061568882615647565b600a82019050919050565b7f3c7465787420783d223137352220793d223332302220746578742d616e63686f60008201527f723d226d6964646c65222066696c6c3d22233838383838382220666f6e742d7360208201527f697a653d223132223e0000000000000000000000000000000000000000000000604082015250565b60006157156049836142c4565b915061572082615693565b604982019050919050565b7f5365637572697479205265736561726368657220230000000000000000000000600082015250565b60006157616015836142c4565b915061576c8261572b565b601582019050919050565b7f3c2f7376673e0000000000000000000000000000000000000000000000000000600082015250565b60006157ad6006836142c4565b91506157b882615777565b600682019050919050565b60006157ce82614e92565b91506157d982614ede565b91506157e482614f50565b91506157ef82614fc2565b91506157fa82615034565b915061580582615080565b9150615810826150cc565b915061581b8261513e565b9150615826826151b0565b9150615832828961431b565b915061583d826151fc565b915061584882615294565b9150615853826152e0565b915061585e8261532c565b9150615869826153c4565b9150615875828861431b565b91506158808261532c565b915061588b8261545c565b9150615896826154a8565b91506158a2828761431b565b91506158ad8261532c565b91506158b882615540565b91506158c38261558c565b91506158cf828661431b565b91506158da8261532c565b91506158e582615624565b91506158f082615670565b91506158fc828561431b565b91506159078261532c565b915061591282615708565b915061591d82615754565b9150615929828461431b565b91506159348261532c565b915061593f826157a0565b9150819050979650505050505050565b7f4e487b7100000000000000000000000000000000000000000000000000000000600052601260045260246000fd5b6000615989826130dc565b9150615994836130dc565b9250826159a4576159a361594f565b5b828204905092915050565b60006159ba826130dc565b91506159c5836130dc565b92508282026159d3816130dc565b915082820484148315176159ea576159e9613bfa565b5b5092915050565b7f536f756c626f756e643a205472616e73666572206e6f7420616c6c6f77656400600082015250565b6000615a27601f83613035565b9150615a32826159f1565b602082019050919050565b60006020820190508181036000830152615a5681615a1a565b9050919050565b600081519050919050565b600082825260208201905092915050565b6000615a8482615a5d565b615a8e8185615a68565b9350615a9e818560208601613046565b615aa781613070565b840191505092915050565b6000608082019050615ac76000830187613171565b615ad46020830186613171565b615ae160408301856133f3565b8181036060830152615af38184615a79565b905095945050505050565b600081519050615b0d81612f9b565b92915050565b600060208284031215615b2957615b28612f65565b5b6000615b3784828501615afe565b91505092915050565b7f4552433732313a206d696e7420746f20746865207a65726f2061646472657373600082015250565b6000615b76602083613035565b9150615b8182615b40565b602082019050919050565b60006020820190508181036000830152615ba581615b69565b9050919050565b7f4552433732313a20746f6b656e20616c7265616479206d696e74656400000000600082015250565b6000615be2601c83613035565b9150615bed82615bac565b602082019050919050565b60006020820190508181036000830152615c1181615bd5565b905091905056fe4142434445464748494a4b4c4d4e4f505152535455565758595a6162636465666768696a6b6c6d6e6f707172737475767778797a303132333435363738392b2fa2646970667358221220e03af03bc681f37ad08fbe1b7c33c4bddedaf1e0b30f7fbe5ea5dd63f22750a964736f6c634300081c0033",
  "devdoc": {
    "author": "Jon - ISSessions Cybersecurity Club",
    "details": "Dynamic NFT metadata based on researcher performance",
    "events": {
      "Approval(address,address,uint256)": {
        "details": "Emitted when `owner` enables `approved` to manage the `tokenId` token."
      },
      "ApprovalForAll(address,address,bool)": {
        "details": "Emitted when `owner` enables or disables (`approved`) `operator` to manage all of its assets."
      },
      "BatchMetadataUpdate(uint256,uint256)": {
        "details": "This event emits when the metadata of a range of tokens is changed. So that the third-party platforms such as NFT market could timely update the images and related attributes of the NFTs."
      },
      "MetadataUpdate(uint256)": {
        "details": "This event emits when the metadata of a token is changed. So that the third-party platforms such as NFT market could timely update the images and related attributes of the NFT."
      },
      "Transfer(address,address,uint256)": {
        "details": "Emitted when `tokenId` token is transferred from `from` to `to`."
      }
    },
    "kind": "dev",
    "methods": {
      "approve(address,uint256)": {
        "details": "See {IERC721-approve}."
      },
      "balanceOf(address)": {
        "details": "See {IERC721-balanceOf}."
      },
      "getApproved(uint256)": {
        "details": "See {IERC721-getApproved}."
      },
      "isApprovedForAll(address,address)": {
        "details": "See {IERC721-isApprovedForAll}."
      },
      "name()": {
        "details": "See {IERC721Metadata-name}."
      },
      "owner()": {
        "details": "Returns the address of the current owner."
      },
      "ownerOf(uint256)": {
        "details": "See {IERC721-ownerOf}."
      },
      "renounceOwnership()": {
        "details": "Leaves the contract without owner. It will not be possible to call `onlyOwner` functions. Can only be called by the current owner. NOTE: Renouncing ownership will leave the contract without an owner, thereby disabling any functionality that is only available to the owner."
      },
      "safeTransferFrom(address,address,uint256)": {
        "details": "See {IERC721-safeTransferFrom}."
      },
      "safeTransferFrom(address,address,uint256,bytes)": {
        "details": "See {IERC721-safeTransferFrom}."
      },
      "setApprovalForAll(address,bool)": {
        "details": "See {IERC721-setApprovalForAll}."
      },
      "symbol()": {
        "details": "See {IERC721Metadata-symbol}."
      },
      "transferFrom(address,address,uint256)": {
        "details": "See {IERC721-transferFrom}."
      },
      "transferOwnership(address)": {
        "details": "Transfers ownership of the contract to a new account (`newOwner`). Can only be called by the current owner."
      }
    },
    "title": "ReputationNFT",
    "version": 1
  },
  "userdoc": {
    "kind": "user",
    "methods": {
      "addSpecialization(address,string)": {
        "notice": "Add specialization to researcher"
      },
      "getResearcherData(uint256)": {
        "notice": "Get researcher NFT data"
      },
      "getTokenIdByAddress(address)": {
        "notice": "Get token ID for researcher address"
      },
      "mintReputationNFT(address)": {
        "notice": "Mint reputation NFT for new researcher"
      },
      "setVulnerabilityRegistry(address)": {
        "notice": "Set vulnerability registry address"
      },
      "supportsInterface(bytes4)": {
        "notice": "Override required by Solidity"
      },
      "tokenURI(uint256)": {
        "notice": "Override required by Solidity"
      },
      "updateReputation(address,uint256,uint256,bool,uint256)": {
        "notice": "Update reputation score and metadata"
      }
    },
    "notice": "ERC-721 based reputation system for security researchers",
    "version": 1
  },
  "storageLayout": {
    "storage": [
      {
        "astId": 339,
        "contract": "contracts/ReputationNFT.sol:ReputationNFT",
        "label": "_name",
        "offset": 0,
        "slot": "0",
        "type": "t_string_storage"
      },
      {
        "astId": 341,
        "contract": "contracts/ReputationNFT.sol:ReputationNFT",
        "label": "_symbol",
        "offset": 0,
        "slot": "1",
        "type": "t_string_storage"
      },
      {
        "astId": 345,
        "contract": "contracts/ReputationNFT.sol:ReputationNFT",
        "label": "_owners",
        "offset": 0,
        "slot": "2",
        "type": "t_mapping(t_uint256,t_address)"
      },
      {
        "astId": 349,
        "contract": "contracts/ReputationNFT.sol:ReputationNFT",
        "label": "_balances",
        "offset": 0,
        "slot": "3",
        "type": "t_mapping(t_address,t_uint256)"
      },
      {
        "astId": 353,
        "contract": "contracts/ReputationNFT.sol:ReputationNFT",
        "label": "_tokenApprovals",
        "offset": 0,
        "slot": "4",
        "type": "t_mapping(t_uint256,t_address)"
      },
      {
        "astId": 359,
        "contract": "contracts/ReputationNFT.sol:ReputationNFT",
        "label": "_operatorApprovals",
        "offset": 0,
        "slot": "5",
        "type": "t_mapping(t_address,t_mapping(t_address,t_bool))"
      },
      {
        "astId": 1390,
        "contract": "contracts/ReputationNFT.sol:ReputationNFT",
        "label": "_tokenURIs",
        "offset": 0,
        "slot": "6",
        "type": "t_mapping(t_uint256,t_string_storage)"
      },
      {
        "astId": 7,
        "contract": "contracts/ReputationNFT.sol:ReputationNFT",
        "label": "_owner",
        "offset": 0,
        "slot": "7",
        "type": "t_address"
      },
      {
        "astId": 4253,
        "contract": "contracts/ReputationNFT.sol:ReputationNFT",
        "label": "_tokenIds",
        "offset": 0,
        "slot": "8",
        "type": "t_struct(Counter)1970_storage"
      },
      {
        "astId": 4279,
        "contract": "contracts/ReputationNFT.sol:ReputationNFT",
        "label": "vulnerabilityRegistry",
        "offset": 0,
        "slot": "9",
        "type": "t_address"
      },
      {
        "astId": 4284,
        "contract": "contracts/ReputationNFT.sol:ReputationNFT",
        "label": "researcherData",
        "offset": 0,
        "slot": "10",
        "type": "t_mapping(t_uint256,t_struct(ResearcherNFT)4277_storage)"
      },
      {
        "astId": 4288,
        "contract": "contracts/ReputationNFT.sol:ReputationNFT",
        "label": "researcherToTokenId",
        "offset": 0,
        "slot": "11",
        "type": "t_mapping(t_address,t_uint256)"
      },
      {
        "astId": 4293,
        "contract": "contracts/ReputationNFT.sol:ReputationNFT",
        "label": "levelNames",
        "offset": 0,
        "slot": "12",
        "type": "t_mapping(t_enum(ReputationLevel)4259,t_string_storage)"
      },
      {
        "astId": 4298,
        "contract": "contracts/ReputationNFT.sol:ReputationNFT",
        "label": "levelColors",
        "offset": 0,
        "slot": "13",
        "type": "t_mapping(t_enum(ReputationLevel)4259,t_string_storage)"
      }
    ],
    "types": {
      "t_address": {
        "encoding": "inplace",
        "label": "address",
        "numberOfBytes": "20"
      },
      "t_array(t_string_storage)dyn_storage": {
        "base": "t_string_storage",
        "encoding": "dynamic_array",
        "label": "string[]",
        "numberOfBytes": "32"
      },
      "t_array(t_uint256)dyn_storage": {
        "base": "t_uint256",
        "encoding": "dynamic_array",
        "label": "uint256[]",
        "numberOfBytes": "32"
      },
      "t_bool": {
        "encoding": "inplace",
        "label": "bool",
        "numberOfBytes": "1"
      },
      "t_enum(ReputationLevel)4259": {
        "encoding": "inplace",
        "label": "enum ReputationNFT.ReputationLevel",
        "numberOfBytes": "1"
      },
      "t_mapping(t_address,t_bool)": {
        "encoding": "mapping",
        "key": "t_address",
        "label": "mapping(address => bool)",
        "numberOfBytes": "32",
        "value": "t_bool"
      },
      "t_mapping(t_address,t_mapping(t_address,t_bool))": {
        "encoding": "mapping",
        "key": "t_address",
        "label": "mapping(address => mapping(address => bool))",
        "numberOfBytes": "32",
        "value": "t_mapping(t_address,t_bool)"
      },
      "t_mapping(t_address,t_uint256)": {
        "encoding": "mapping",
        "key": "t_address",
        "label": "mapping(address => uint256)",
        "numberOfBytes": "32",
        "value": "t_uint256"
      },
      "t_mapping(t_enum(ReputationLevel)4259,t_string_storage)": {
        "encoding": "mapping",
        "key": "t_enum(ReputationLevel)4259",
        "label": "mapping(enum ReputationNFT.ReputationLevel => string)",
        "numberOfBytes": "32",
        "value": "t_string_storage"
      },
      "t_mapping(t_uint256,t_address)": {
        "encoding": "mapping",
        "key": "t_uint256",
        "label": "mapping(uint256 => address)",
        "numberOfBytes": "32",
        "value": "t_address"
      },
      "t_mapping(t_uint256,t_string_storage)": {
        "encoding": "mapping",
        "key": "t_uint256",
        "label": "mapping(uint256 => string)",
        "numberOfBytes": "32",
        "value": "t_string_storage"
      },
      "t_mapping(t_uint256,t_struct(ResearcherNFT)4277_storage)": {
        "encoding": "mapping",
        "key": "t_uint256",
        "label": "mapping(uint256 => struct ReputationNFT.ResearcherNFT)",
        "numberOfBytes": "32",
        "value": "t_struct(ResearcherNFT)4277_storage"
      },
      "t_string_storage": {
        "encoding": "bytes",
        "label": "string",
        "numberOfBytes": "32"
      },
      "t_struct(Counter)1970_storage": {
        "encoding": "inplace",
        "label": "struct Counters.Counter",
        "members": [
          {
            "astId": 1969,
            "contract": "contracts/ReputationNFT.sol:ReputationNFT",
            "label": "_value",
            "offset": 0,
            "slot": "0",
            "type": "t_uint256"
          }
        ],
        "numberOfBytes": "32"
      },
      "t_struct(ResearcherNFT)4277_storage": {
        "encoding": "inplace",
        "label": "struct ReputationNFT.ResearcherNFT",
        "members": [
          {
            "astId": 4261,
            "contract": "contracts/ReputationNFT.sol:ReputationNFT",
            "label": "reputationScore",
            "offset": 0,
            "slot": "0",
            "type": "t_uint256"
          },
          {
            "astId": 4263,
            "contract": "contracts/ReputationNFT.sol:ReputationNFT",
            "label": "vulnerabilitiesFound",
            "offset": 0,
            "slot": "1",
            "type": "t_uint256"
          },
          {
            "astId": 4265,
            "contract": "contracts/ReputationNFT.sol:ReputationNFT",
            "label": "totalEarnings",
            "offset": 0,
            "slot": "2",
            "type": "t_uint256"
          },
          {
            "astId": 4267,
            "contract": "contracts/ReputationNFT.sol:ReputationNFT",
            "label": "lastUpdate",
            "offset": 0,
            "slot": "3",
            "type": "t_uint256"
          },
          {
            "astId": 4270,
            "contract": "contracts/ReputationNFT.sol:ReputationNFT",
            "label": "level",
            "offset": 0,
            "slot": "4",
            "type": "t_enum(ReputationLevel)4259"
          },
          {
            "astId": 4273,
            "contract": "contracts/ReputationNFT.sol:ReputationNFT",
            "label": "specializations",
            "offset": 0,
            "slot": "5",
            "type": "t_array(t_string_storage)dyn_storage"
          },
          {
            "astId": 4276,
            "contract": "contracts/ReputationNFT.sol:ReputationNFT",
            "label": "criticalFinds",
            "offset": 0,
            "slot": "6",
            "type": "t_array(t_uint256)dyn_storage"
          }
        ],
        "numberOfBytes": "224"
      },
      "t_uint256": {
        "encoding": "inplace",
        "label": "uint256",
        "numberOfBytes": "32"
      }
    }
  }
}